:100000000C9416040C944E040C944E040C944E0460
:100010000C944E040C944E040C944E040C944E0418
:100020000C944E040C944E040C94B7290C94732930
:100030000C94B42A0C944E040C944E040C944E046C
:100040000C944E040C944E040C944E040C944E04E8
:100050000C944E040C94902A0C944E040C944E0470
:100060000C944E040C944E040C944E040C944E04C8
:100070000C944E040C944E040C944E040C944E04B8
:100080000C944E040C944E040C944E040C944E04A8
:100090000C944E040C944E040C944E040C944E0498
:1000A0000C944E040C944E040C944E040501090269
:1000B000A10185020901A100050919012905150001
:1000C00025019505750181029501750381010501E1
:1000D000093009311581257F950275088106093897
:1000E0001581257F950175088106050C0A380215D2
:1000F00081257F950175088106C0C005010980A191
:1001000001850319012AB700150126B7009501756D
:10011000108100C0050C0901A101850419012AA064
:1001200002150126A002950175108100C005010984
:1001300006A1018506050719E029E71500250195A7
:1001400008750181020507190029EF1500250195A1
:10015000F0750181020508190129059505750191C0
:1001600002950175039101C00660FF0961A10109B3
:1001700062150026FF0095207508810209631500AD
:1001800026FF00952075089102C005010906A1010E
:10019000050719E029E71500250195087501810279
:1001A0009501750881010507190029FF150026FF33
:1001B0000095067508810005081901290595057542
:1001C000019102950175039101C00000000000003B
:1001D000000000000000000000000000000000001F
:1001E00000000000000000000000000000007E0F82
:1001F00000D4FFFFFFC700000078000000000000EF
:1002000000002A2B28000000000000000000000071
:10021000000000000029000000002C1E34202122D4
:1002200024342627252E362D3738271E1F2021223D
:10023000232425263333362E37381F0405060708B6
:10024000090A0B0C0D0E0F101112131415161718A6
:10025000191A1B1C1D2F3130232D350405060708E4
:10026000090A0B0C0D0E0F10111213141516171886
:10027000191A1B1C1D2F3130354CFD377A585A0086
:100280000004E6D6B4460200210116000000742FD7
:10029000E5A3E00391014A5D003D8889C65436C359
:1002A000174FE4DF1FEEE4F4C8EDFCAEE2ED494287
:1002B00078D946338EAE83282FB5D1D1F4957FDA25
:1002C000B0B055C1B29EB7D2808F8A4B93B9960217
:1002D0008E4FAB891FADE063548CB697F52ECCCF13
:1002E00048A2B89E33C4F21971E393DF5F0BA37F7A
:1002F000D53AE99A3C1EA7EE5FA5B3F1E40652B4E5
:10030000163114D24B4FBF3CAA1C5256CF2044BBCF
:100310009593AECC7D4E7A8E7A1438A31C602F0B49
:100320009C1B9DF5A3CA6E5E95F15C4B133E1E3F70
:100330007432F6FC72DCA2E11D7A1AAFC8BCB701B8
:100340001741EA5E8F40D5384FF8BC6E0433DC3A73
:1003500069AED3F0A122E92637C6155291C2D4C79F
:10036000C50F690F734C081B76A22CD4510FB16CCA
:100370000AD16D1730C10E25139D83333257D30D2B
:10038000D76A29FC6736EF6370FEAD7DB00F9D9E86
:10039000DBA9917C7F727B79E416057A95502393D3
:1003A000C8952D411477A5B6368EEDEDEF7C6A58D1
:1003B000C5D8D25519439AC8AAC58564EC59AB2A49
:1003C00014BBB926B95312C8E82B0AA57A07EC4624
:1003D0007B66411949D077AE6FF9C45ECF9F054D5A
:1003E000536D00000000A270A6C30DC2CB720001C5
:1003F000E6029207000088408E6BB1C467FB0200E2
:1004000000000004595A29003A003B003C003D001E
:100410003E003F0040004100000042004300440015
:1004200045000000A90035001E001F00200021002B
:100430002200230024002500260027002D002E0086
:100440002A00AA002B0014001A000800150017004B
:100450001C0018000C00120013002F0030003100A7
:10046000A800390004001600070009000A000B006C
:100470000D000E000F003300340000002800AE0015
:100480005200E1001D001B000600190005001100CC
:1004900010003600370038000000E5005000510021
:1004A0004F00E000E200000000002C00000000000F
:1004B0000000E600E700E400015101000100010036
:1004C0000100010001000100010001000000010025
:1004D0000100010001000000010001000100010015
:1004E0000100010001000100010001000100010004
:1004F00001000100010001000100010001000100F4
:1005000001000100010001000100010001000100E3
:1005100001000100010001000100010001000100D3
:1005200001000100010001000100010001000000C4
:1005300001000100010001000100010001000100B3
:1005400001000100010001000100010000000100A4
:100550000100010001000100010000000000010095
:1005600000000000000001000100005C010001002B
:100570000100010001000100010001000100010073
:100580000000010001000100010000000100010065
:100590000100010001000100010001000100010053
:1005A0000100010001000100010001000100010043
:1005B0000100010001000100010001000100010033
:1005C0000100010001000100010001000100010023
:1005D0000100010001000100010001000100010013
:1005E0000100000001000100010001000100010004
:1005F00001000100010001000100010001000100F3
:1006000000000100010001000100010001000000E4
:100610000000010000000000000001000100005C7B
:1006200001000100010001000100010001000100C2
:1006300001000100000001000100010001000000B4
:1006400001000100010001000100010001000100A2
:100650000100010001000100010001000100010092
:100660000100010001000100010001000100010082
:100670000100010001000100010001000100010072
:100680000100010001000100010001000100010062
:100690000100010001000000010001000100010053
:1006A0000100010001000100010001000100010042
:1006B0000100010000000100010001000100010033
:1006C0000100000000000100000000000000010027
:1006D0000100005C010001000100C20300000200F3
:1006E0000200BE03000003000100C3030000040079
:1006F0000200A803FF0605000100C4030000060075
:100700000200AA03000007000200C0030000080066
:100710000100C503000009000200AC03DA060A006C
:100720000200AE03DA060B000200B003DA060C008A
:100730000200B203DA060D000200B403DA060E006E
:100740000200B603DA060F000200B803DA06100052
:100750000200BA03DA0611000200BC03DA06120036
:100760000200C603000013000200C80300000902D3
:100770005B00030100A0FA0904000001030101006D
:100780000921110100012240000705810308000131
:1007900009040100020300000009211101000122E7
:1007A0002200070582032000010705030320000142
:1007B00009040200010300000009211101000122C7
:1007C000BC000705840320000112010002000000A4
:1007D00008061313000100010203011C03760069DF
:1007E0000061006C003A006600360034006300329D
:1007F0000062003300630000001203470065006DD3
:1008000000650061007500370035000000180341E5
:10081000004600580020004400650073006900672E
:10082000006E0073000000040309040011241FBEC1
:10083000CFEFDAE0DEBFCDBF04B603FE18C0809173
:10084000680490916904A0916A04B0916B048730A8
:10085000904BA740B04B59F4109268041092690471
:1008600010926A0410926B04E0E0F8E3099511E03D
:10087000A0E0B1E0E6E0F5E602C005900D92AA37EF
:10088000B107D9F724E0AAE7B1E001C01D92A8366C
:10089000B207E1F70E94DB2A0C941E320C94000090
:1008A000E8EDF0E080818E7F80831092E20010926C
:1008B000DA001092E100A0EEB0E08C9181608C93A0
:1008C00080818F77808319BCA7EDB0E08C918E7FFB
:1008D0008C9380818F7E80831092370408952091BD
:1008E000E4003091E50095E6A9012091EC00822F0B
:1008F000817020FF06C08091E80080FF06C080E084
:1009000008952091E80022FD1AC080915C0488239C
:1009100089F0853089F08091EB0085FD0FC0209132
:10092000E4003091E50042175307F9F29150E1F6E7
:1009300084E0089582E0089583E0089581E00895B9
:10094000EF92FF920F931F93CF937C018B010E9434
:100950006F04C82F811117C08091E80085FD0BC07E
:100960008091E8008E778093E8000E946F048823CE
:1009700099F3C82F08C0F70181917F018093F1009E
:100980000150110949F78C2FCF911F910F91FF90C2
:10099000EF90089580915E0487FF13C08091E80076
:1009A00082FF06C08091E8008B778093E80004C046
:1009B00080915C048111F2CF089580915C048823BA
:1009C000D9F38091E80080FFF8CF8091E8008E771E
:1009D000ECCF982F9093E900242F762F50E08917C1
:1009E00031F07091EC002091ED005091F00021FD6C
:1009F00007C09F5F973071F78093E90081E0089509
:100A00003091EB003E7F3093EB003091ED003D7F65
:100A10003093ED003091EB0031603093EB00709338
:100A2000EC002093ED005093F0002091EE0027FDA4
:100A3000E0CF80E00895CF92DF92EF92FF920F9384
:100A40001F93CF93DF93C8EDD0E088818F7E88839A
:100A5000E7EDF0E080818160808384E082BF81E007
:100A60008093370488818E7F888302EE10E0F8013E
:100A700010821092DA0081EEC82ED12CF60110827D
:100A800088818F77888388818068888388818F7D3B
:100A9000888319BC10925C0410925D0410925B0470
:100AA00010925A0490EEE92EF12CF70180818B7F91
:100AB000808388818160888342E060E080E00E94DA
:100AC000E904F60180818E7F8083F8018081816056
:100AD0008083808188608083F70180818E7F80831E
:100AE000888180618883DF91CF911F910F91FF9062
:100AF000EF90DF90CF900895FC0180916404909175
:100B0000650486179707A0F06115710529F4909187
:100B1000E8009E779093E80090E06115710551F42C
:100B2000911108C08091E80082FF34C080E00895F0
:100B3000BC01F2CF80915C048823C1F18530C1F102
:100B40008091E80083FD30C08091E80082FDEACF0B
:100B50008091E80080FFE1CF8091F3002091F200C6
:100B6000382F6115710519F02830310558F091E0E2
:100B70002830310509F090E02091E8002E7720938D
:100B8000E800CBCF81918093F100615071092F5F14
:100B90003F4FE7CF80915C04882341F0853041F0DE
:100BA0008091E80083FFBECF81E0089582E0089540
:100BB00083E0089508958091390408959C014FB70A
:100BC000F89480912E0490912F04A0913004B0915C
:100BD00031044FBF821B930B08952FB7F894809177
:100BE0002E0490912F04A0913004B09131042FBFB6
:100BF000089520911C012223C9F02091320427FF7F
:100C000015C0E62FE695E695E695EE31D8F4E80FA7
:100C1000F92FF11D677021E030E001C0220F6A95C5
:100C2000EAF720958281282322830895FC013296D9
:100C300008962191621303C0DF0111971C92E817F7
:100C4000F907B9F7089520911C012223C1F02091E2
:100C5000320427FF14C0E62FE695E695E695EE31BF
:100C6000F8F4E80FF92FF11D677021E030E001C0C2
:100C7000220F6A95EAF78281822B82830895FC0114
:100C800032962FEF30E04191641751F02F3F19F465
:100C9000411101C0232F3F5F3630A9F72F3F09F4E0
:100CA0000895820F911D27FD9A95FC016283089596
:100CB00020912B0430912C042817390771F0909360
:100CC0002C0480932B04E0912904F0912A0430979E
:100CD00021F00084F185E02D0994089520912704E6
:100CE000309128042817390771F0909328048093D5
:100CF0002704E0912904F0912A04309721F006801E
:100D0000F781E02D09940895E0912904F0912A04D7
:100D1000309721F00190F081E02D099480E0089552
:100D2000452B39F0682381E06F3F09F080E0817046
:100D3000089581E0FCCFDC016091A2038091A303C0
:100D4000962F891301C00895292F30E0F901EE0F85
:100D5000FF1FE656FC4F408151814A175B07A1F403
:100D600087E08A9FA0018B9F500D11244E595C4F44
:100D700081E0FA0184839613E6CF2F5F3F4F237003
:100D800033272093A20308952F5F3F4F922F937034
:100D9000D8CF1092FF021092FE02E2E6F3E08581C6
:100DA000811102C014821682379683E0EA39F8076F
:100DB000B1F70895E8EAF3E0848195812AE030E014
:100DC000B9010E94693160931501868180931401F5
:100DD000828580931301848580931201868597858F
:100DE000B9010E94693160931101808980931001DB
:100DF000828980930F01848980930E0108958091E8
:100E0000A8039091A9039093170180931601089568
:100E10000E94ED059C019091730280917402982BC1
:100E200021F03093700220936F02909175028091AF
:100E30007602982B21F030936E0220936D02E091A0
:100E40002904F0912A04309749F082E080937102DE
:100E50000480F581E02D81E792E009940895909156
:100E60007302803F59F48091740287FF0DC0109285
:100E7000740291110BC010926B0208C0813F81F483
:100E80008091740218169CF3992381F08091750269
:100E900090917602892B09F064C010926A0208953D
:100EA000823F49F497FFF0CF109273028091740251
:100EB0008111ECCFE0CF833F19F41916ACF3E4CFE6
:100EC00020917502893F29F41216F4F610927502EA
:100ED000DBCF8A3F19F427FFD7CFF8CF20917602D6
:100EE0008B3F29F427FFD0CF10927602CDCF8C3FD5
:100EF00019F41216CCF3C8CF843F31F480917202FA
:100F00008E7F80937202C0CF853F21F48091720260
:100F10008D7FF7CF863F21F4809172028B7FF1CFD6
:100F2000873F21F480917202877FEBCF883F21F4C5
:100F3000809172028F7EE5CF8D3F31F480916C02FB
:100F40008E7F80936C02A0CF8E3F21F480916C0243
:100F50008D7FF7CF8F3F09F097CF80916C028B7F09
:100F6000F0CF089580916C0280FF0CC060910F015A
:100F700070E075956795759567956115710549F1EF
:100F8000862F089581FF06C060910F0170E075956E
:100F90006795F3CF60910F0182FD0BC090916A02BB
:100FA0009923A1F060910E0180910F01961738F0FE
:100FB000682F70E06038710500F38FE70895899F0E
:100FC000C001112470E00E947D31F4CF61E070E037
:100FD000D7CF81E0089580916C026091B003709149
:100FE000B10380FF16C020911301269FC001279FE7
:100FF000900D1124BC0176956795769567956038BC
:10100000710508F043C06115710509F441C0862FD0
:10101000089581FF0BC020911301269FC001279FD7
:10102000900D1124BC0176956795E9CF82FF09C028
:10103000809113019B01829FB001839F700D112449
:10104000DECF20916B022223D1F290911201809188
:101050001301482F50E0291748F0CB01849FB001BD
:10106000859F700D949F700D1124C9CF289F90010A
:101070001124269FA001279F500D369F500D11244B
:10108000692F70E0CA010E946931B9CF8FE70895D6
:1010900081E00895803F31F40E94EB0781958093B1
:1010A00074020895813F19F40E94EB07F8CF823F44
:1010B00031F40E94EB078195809373020895833F7A
:1010C00019F40E94EB07F8CF893F29F40E94B20778
:1010D0008093750208958A3F21F40E94B20781959A
:1010E000F7CF8B3F31F40E94B2078195809376024F
:1010F00008958C3F19F40E94B207F8CF843F31F471
:10110000809172028160809372020895853F21F47C
:10111000809172028260F7CF863F21F48091720243
:101120008460F1CF873F21F4809172028860EBCF19
:10113000883F21F4809172028061E5CF8D3F31F4C8
:1011400080916C02816080936C0208958E3F21F43F
:1011500080916C028260F7CF8F3FB9F780916C026B
:101160008460F1CF80E00895F894E82FE295EF7065
:10117000F0E031A1282F2F7081E090E001C0880FAE
:101180002A95EAF7982F9095932391A392A1892B02
:1011900082A3789408959091320492FF06C0282F7C
:1011A00028712830F9F4877F846093FF06C0282FC8
:1011B00028712831F1F4877E84612091330420FF67
:1011C00006C0382F38713830D9F4877F816021FF0D
:1011D00006C0282F28712831D1F4877E816194FDC3
:1011E000877E0895282F24712430F9F68B7F88603C
:1011F000DCCF282F2471243101F78B7E8861DDCF6D
:10120000382F3171313019F78E7F8860E0CF282F69
:101210002171213121F78E7E8861E1CFCF93DF9359
:10122000EC0182389105A9F1D8F58133910509F4D3
:1012300096C048F58932910509F48AC08A9709F465
:1012400095C0C11521E5D20708F0BCC0C11530E535
:10125000D30708F014C1C83ED10508F09CC0C03EB9
:10126000D10560F5C83AD10508F087C0C53AD10567
:1012700008F0FDC0C130D10509F12097F9F0C43064
:10128000D105E0F440C08533910509F45AC0C997EF
:10129000C1F680913204837089F0C0EED0E00EC0B8
:1012A000833E910599F170F4803E910501F1823EF3
:1012B000910539F68091320482FD21C0CE01DF9183
:1012C000CF910895863E910561F1873E910571F1B8
:1012D000843E910509F0B5CF8091330481FFEECFB4
:1012E00080913204C7EED0E084FD0DC0E7CF80913D
:1012F000320480FD12C19091330490FFDFCFC3EE22
:10130000D0E084FFDBCFD0E0C0E0D8CF80913204C2
:1013100082FD06C19091330490FDBFCF84FFCECFF4
:10132000F2CF8091320483FDDDCFC8CF80913204AB
:1013300083FDF9C09091330491FFF0CFC4EED0E06B
:10134000BDCF8091320485FFB9CFC9E2D0E0B6CFDE
:101350008091320485FFB2CFC5E3D0E0AFCF80915A
:10136000320486FFABCFCAE2D0E0A8CF809132042E
:1013700086FFA4CFC1E3D0E0A1CFCF3BD10518F6C3
:10138000C85AD0E0CC0FDD1FC85DDE4F0990D88170
:10139000C02DD46493CFC11540E2D40758F4C115D1
:1013A00081E0D80708F08ACFC03FD10508F4ABCF61
:1013B000D06584CFC11590E4D90708F4A4CFDF70BD
:1013C000D06A7CCFC11525E5D20700F5C11534E5FB
:1013D000D30708F08AC0C11543E5D40708F071C0EF
:1013E000C11582E5D80708F467C0CE01837099273C
:1013F00021E030E002C0220F331F8A95E2F7C69544
:10140000C69580E2C89FE001112452C0C11599E53C
:10141000D907A8F4C11528E5D20708F06BC0C1159B
:1014200036E5D30708F06FCF8C2F0E94CB08C82F6A
:10143000D0E0DC2FCC27CC27DF71D0623FCFC115A5
:101440004AE5D40708F45BC0CE019056811590425E
:1014500008F059CF8D2F8F710E94CB0890E0982F04
:10146000882788279F719C012C2BE901E6CFC55A5C
:10147000D0E0CB5DDE4FC881D0E0D0641FCFCE017D
:10148000E4E096958795EA95E1F783702C2F2695F1
:101490002695237040E2249F90011124382B8C2F35
:1014A0008370C1E0D0E002C0CC0FDD1F8A95E2F767
:1014B000C22BD32BDC6802CFDC2FCC27C16FD06AC4
:1014C000FDCECE018370992721E030E002C0220FCB
:1014D000331F8A95E2F7C695C69590E2C99FE00151
:1014E0001124C22BD32BDA68E9CEDC2FCC27C46FB2
:1014F000D06AE4CEDC2FCC27C06FD06ADFCE8C2F31
:101500008F700E94CB0834E0D695C7953A95E1F7E5
:10151000CF709C2FEC01D069D1CEC9E3D0E0CECE04
:10152000C2EED0E0CBCEC6EED0E0C8CE809136027F
:10153000882331F010923602109235021092340254
:101540000895CF93C82F8091330482FD0CC0809101
:1015500036028C1741F00E94ED059093350280937E
:101560003402C0933602CF9108958095909167041C
:10157000982390936704089580959091D9029823B9
:101580009093D90208959091D902892B8093D90222
:1015900008951092130210921202109211020895EF
:1015A0008091AA039091AB03892B89F00E94ED05ED
:1015B0002091340230913502AC01421B530B81E083
:1015C0002091AA033091AB034217530708F480E03F
:1015D0008170089580911002811110921002089577
:1015E00020910F029091CE01291302C080E008954E
:1015F00030E0F90153E0EE0FFF1F5A95E1F7E15398
:10160000FE4F5181561306C05081581303C05281BA
:10161000541304C02F5F3F4F2770E6CF81E0089539
:1016200080910F029091CE01981301C008958F5FB1
:101630008770FACF9E3F49F1E82F2FE0929FE00D8F
:1016400011249E2F9770E695E695E69583E0E89F36
:10165000F0011124EE55FE4F50E040E080E0219172
:1016600030E0092E02C0369527950A94E2F72170E2
:101670003327042E01C0220F0A94EAF7822B4F5F12
:101680005F4F4330510559F7089580E008959E3F1C
:1016900069F1E82F2FE0929FE00D11248E2F8770C3
:1016A00041E001C0440F8A95EAF7E695E695E69594
:1016B00083E0E89FF0011124EE55FE4F30E020E07A
:1016C00070E05191DF011197CB01022E02C0969577
:1016D00087950A94E2F78170819585278423852771
:1016E0008C932F5F3F4F2330310559F70895929522
:1016F0009F70963091F058F4925F9F70923058F43A
:10170000803F19F030F4883E30F481E008959A5F0C
:10171000F4CF843FD1F380E00895883EB0F3813F59
:10172000D1F7F3CF9C013A9521153F4150F5FC01CB
:10173000EE27F170BC0166277270AC01442754702B
:101740009C012227387094FF0EC080E1EF2B09F432
:1017500080E0672B09F08062452B09F08064232B21
:1017600089F08068089581E0EF2B09F480E0672B11
:1017700009F08260452B09F08460232B19F0886002
:10178000089580E008958093340470933604609344
:10179000350480915C048430F9F48093E9008FEF84
:1017A0009091E800815095FD06C095ED9A95F1F76E
:1017B00000008111F5CF8091E80085FF0DC050E059
:1017C00040E063E070E084E394E00E94A004809134
:1017D000E8008E778093E8000895BC0184E00C94C3
:1017E000C30BBC0183E00C94C30B9C0184E0809389
:1017F000E9009FEF8091E800915085FD06C085EDDE
:101800008A95F1F700009111F5CF8091E80085FFEE
:101810000CC050E040E066E070E0C9010E94A00406
:101820008091E8008E778093E8000895CF93DF934E
:10183000EC0180911C018823B1F18091320487FF73
:1018400032C060E284E08093E9008FEF9091E8007D
:10185000815095FD06C095ED9A95F1F70000811134
:10186000F5CF8091E80085FF1BC080911C0170E0DE
:1018700050E040E0811104C050E040E068E070E0DA
:10188000CE010E94A0048091E8008E778093E8004A
:1018900080E2FE01AAE3B4E001900D928A95E1F79F
:1018A000DF91CF91089568E081E0CDCF81E0809312
:1018B000E00080E28093D8001092C9008FE19EE49E
:1018C0000197F1F700C0000087E090EBDC01809306
:1018D000680490936904A0936A04B0936B0488E150
:1018E0009CE00FB6F894A895809360000FBE90938B
:1018F0006000FFCF019708F40895EFE9FFE031970A
:10190000F1F700C00000F6CF0F931F93CF93DF9342
:1019100008EA13E0C7EFD2E0CE010E94D431F8010B
:1019200081938F012196C931F3E0DF07A9F7CCED50
:10193000D6E0FE0185919491009711F0FC01099584
:101940002896F7E0C437DF07A1F7DF91CF911F9109
:101950000F9108950F931F93CF93DF93843030F549
:10196000663020F54F3010F5C42FD0E0CC0FDD1FCE
:101970002EE1629FC00DD11D112434EB839FC00D59
:10198000D11D1124CE0187960E94D431082F10E07A
:10199000102F0027CE0188960E94D4319801282B61
:1019A000C901DF91CF911F910F91089590E080E0E0
:1019B000F8CF462F2091D7023091D802232B91F4F3
:1019C0007E3F39F46E3F71F48091D5029091D6023A
:1019D0000895843038F4763028F46F3018F4672F87
:1019E0000C94AA0C90E080E00895CF92DF92FF92D1
:1019F0000F931F93CF93DF936C0100916604809146
:101A00003702082BC7E0D0E010E0FC2EC8010C2EF6
:101A100002C0959587950A94E2F780FD0CC0219746
:101A2000A0F7F12C8F2DDF91CF911F910F91FF9097
:101A3000DF90CF900895B6018C2F0E94D90C0E94A0
:101A40000E09019761F3EECFCF93DF93EC010E9473
:101A5000F50CBE010E94D90CDF91CF910C940E09B8
:101A6000FC0186819781009721F00E940E090C9459
:101A7000770B808191810E94240DF9CF1F93CF9322
:101A8000DF9300D000D00F92CDB7DEB749835A83E1
:101A900089819A816623B9F02223A9F00E94F50C6E
:101AA000182F682F89819A810E94470B69817A815A
:101AB000812F0F900F900F900F900F90DF91CF918B
:101AC0001F910C94D90C0E941A0B182FEFCFFC0118
:101AD000262F86819781009739F440815181628158
:101AE000738184810C943E0D089583E290E00E94FE
:101AF000D4318E3889F484E290E00E94D43180366B
:101B000059F485E290E00E94D43191E0873409F0E5
:101B100090E0892F8170089580E0FCCFCF9384E01E
:101B200090E00E94D431C82F82E290E00E94D4312C
:101B3000982F8C2FCF9108950F931F93CF93DF93FE
:101B400008EA13E0C7EFD2E0CE010E94D431F801D9
:101B500061918F01681719F0CE010E94E231219640
:101B6000C931F3E0DF0781F7DF91CF911F910F912A
:101B70000895E8EAF3E0128E138E8FEA90E09183E5
:101B8000808385E0848F88E893E1938382838AE071
:101B900090E09583848324E130E03783268348E016
:101BA00050E051874087938782872EE130E0358768
:101BB00024879787868720E530E0318B208B538BF5
:101BC000428B48E250E0558B448B42E350E0578B08
:101BD000468B48EC50E0518F408F158E978F868F43
:101BE00031A320A30E949C0D0C94840CCF93DF930F
:101BF000C1E9D3E060E0CE010E94E2312196C11537
:101C000084E0D807B9F7DF91CF9108950F931F9320
:101C1000CF93DF938901843048F5663038F54F3033
:101C200028F521153C4531F420911A0130911B0112
:101C3000232BE1F0C42FD0E0CC0FDD1F9EE1699F84
:101C4000C00DD11D112494EB899FC00DD11D11240D
:101C5000612FCE0187960E94E231602FCE018896D7
:101C6000DF91CF911F910F910C94E231DF91CF91D1
:101C70001F910F910895CF93C82F6FEF81116EE8D8
:101C800083E290E00E94E2316FEFC11160E684E2EE
:101C900090E00E94E2316FEFC11167E485E290E0CD
:101CA000CF910C94E2317F928F929F92AF92BF922C
:101CB000CF92DF92EF92FF920F931F93CF93DF9318
:101CC000CDB7DEB764970FB6F894DEBF0FBECDBFB9
:101CD000A0901A01B0901B0181E090E090931B014D
:101CE00080931A0186E0C82E84E0D82E00E07601A9
:101CF00010E015C0F40125913491472D612F802FFC
:101D00000E94060E82E0880E911C7394EFE07E1212
:101D1000F1CFFEE1EF0EF11C1F5F163019F0470105
:101D2000712CE8CF0F5F84EBC80ED11C0430F9F69C
:101D30000E94B90D1A8219821C821B821E821D828A
:101D400018861F8288EC90E09A8789874AE050E0E5
:101D500069E173E0CE0101960E9406324AE050E04C
:101D600063E273E0CE0101960E9406324AE050E041
:101D70006DE273E0CE0101960E9406324AE050E027
:101D800067E373E0CE0101960E9406327E01EBE02C
:101D9000EE0EF11C8AE0F70111928A95E9F701E451
:101DA00013E04AE050E0B801C7010E940632065F26
:101DB0001F4F0139F3E01F07A1F7B0921B01A0925A
:101DC0001A0164960FB6F894DEBF0FBECDBFDF9147
:101DD000CF911F910F91FF90EF90DF90CF90BF9028
:101DE000AF909F908F907F90089580E00E943B0E6F
:101DF00060E086E290E00E94E2310E94530E0E9471
:101E0000F60D81E00C943B0E9B01843070F49AE057
:101E1000899FB0011124675E7C4F4AE050E0C90100
:101E20000E94C43190E080E008958FEF9FEF089505
:101E30008F929F92AF92BF92CF92DF92EF92FF92DA
:101E40000F931F93CF93DF93CDB7DEB72A970FB6CB
:101E5000F894DEBF0FBECDBF0FEC13E0F12CE12CE8
:101E60008DECC82E88E2D82E97EFA92E98E2B92ED5
:101E700026E3822E28E2922EF801D182C082B3821C
:101E8000A28295828482F58AE48ABE016F5F7F4FC9
:101E90008E2D0E94040F892B29F489859A85F801DB
:101EA000938B828BFFEFEF1AFF0A0A5E1F4F84E0CD
:101EB000E816F10409F72A960FB6F894DEBF0FBEB4
:101EC000CDBFDF91CF911F910F91FF90EF90DF90E9
:101ED000CF90BF90AF909F908F900895CF92DF9258
:101EE000EF92FF920F931F93CF93DF93CDB7DEB79F
:101EF0002A970FB6F894DEBF0FBECDBFE5E8F2E03B
:101F000080E5DF011D928A95E9F7E2E6F3E088E3D8
:101F1000DF011D928A95E9F785E8C82E82E0D82E68
:101F20007F0101E413E0F701D182C0824AE050E072
:101F3000B801CE0101960E94C43188E0FE013196BD
:101F4000D60101900D928A95E1F789859A85D7018E
:101F500013969C938E931297BAE0CB0ED11CE7E0B8
:101F6000EE0EF11C065F1F4F0139F3E01F07D9F693
:101F70002A960FB6F894DEBF0FBECDBFDF91CF918A
:101F80001F910F91FF90EF90DF90CF9008954F92A7
:101F90005F926F927F928F929F92AF92BF92CF92F9
:101FA000DF92EF92FF920F931F93CF93DF93CDB702
:101FB000DEB72C970FB6F894DEBF0FBECDBF8E01F3
:101FC0000F5F1F4F8CE0F80111928A95E9F796E5B3
:101FD000E92E91E0F92E68012CE5422E21E0522EE7
:101FE00066246394712C4BE6842E41E0942EF70115
:101FF00081917F018F3F09F445C0F894E82FE29565
:10200000EF70F0E021A18F70A30102C0440F551FB3
:102010008A95E2F7CA01922F982B91A392A18095FD
:10202000892382A3789400C0ECE5F1E021E030E060
:10203000B12CA12C41914F3F09F486C0A42FA29549
:10204000AF70B0E090968C9190E04F7002C0959583
:1020500087954A95E2F780FD77C0C901A82AB92A79
:10206000220F331F8E169F0629F7F70131978081C3
:102070008F3F11F00E94B40850EA5A95F1F7F6012B
:10208000B182A082F2E0CF0ED11C4E145F0409F0A1
:10209000AECF4CE050E0B8018BE392E00E94A73154
:1020A000FF24F394009709F4F12C892B09F44FC015
:1020B0008CE0F801ABE3B2E001900D928A95E1F774
:1020C00081E080933A020E94ED059093390280935B
:1020D000380280913802909139020E94DE050597FE
:1020E000D0F180913B0290913C0290935F028093EB
:1020F0005E0280913D0290913E0290936102809336
:10210000600280913F02909140029093630280931D
:102110006202809141029091420290936502809305
:1021200064028091430290914402909367028093ED
:1021300066028091450290914602909369028093D5
:10214000680210923A0207C090E080E087CF809149
:102150003A028111BECF8F2D2C960FB6F894DEBFB8
:102160000FBECDBFDF91CF911F910F91FF90EF90E8
:10217000DF90CF90BF90AF909F908F907F906F90A7
:102180005F904F9008958091D90290916704892BB8
:1021900080937C0180913602882319F18091AA03F3
:1021A0009091AB03892B29F00E94D00A81110E94E3
:1021B000960A80917C0190913602892B80937C0154
:1021C00080911C018823D9F18091320487FF37C0A8
:1021D0008EE1EEE7F1E090E0815098F591110E94D8
:1021E000960A40E250E064E172E08CE791E00E94E0
:1021F000A731892B59F180E2ECE7F1E0A4E1B2E0EC
:1022000001900D928A95E1F7E0912904F0912A045A
:102210003097E1F080911C01882359F080913204BD
:1022200087FF07C080917C0180937D0186E08093C9
:102230007C010280F381E02D8CE791E0099486E037
:10224000C8CF2191222341F29F5FC6CF0895EF921C
:10225000FF920F931F93CF93DF93EC018A85811137
:1022600034C0EB80FC8087E5F81A26E12E9DC00182
:102270002F9D900D1124DC01A153BC4F1496ED91BC
:10228000FC911597309731F054966D917C918B525B
:102290009C4F099586E18E9D80018F9D100D112424
:1022A00001531C4FF80187810E94BC0AF801808508
:1022B0000E94B50A0E94C310188219861B861E82CE
:1022C0001D821092CE031092CD03DF91CF911F910A
:1022D0000F91FF90EF900895CF93DF93EC018989E0
:1022E000811118C081E0898B8F810E94C30A80917F
:1022F00067049885892B809367040E94C310EA8144
:10230000FB81309739F06C897D89CE010696DF918B
:10231000CF910994DF91CF91089580911801877F23
:102320008093180182E00E94B50A8091180184FF11
:1023300006C08F7E8093180182E00E94C30A8091BC
:10234000180185FF06C08F7D8093180180E20E94EE
:10235000C30A0C94C31090E080E00E946E0690E0E7
:1023600080E00E945806109267040E94C31086E025
:10237000E1E7F2E0DF011D928A95E9F710926B0226
:1023800010926A0210926C020C9408078093660403
:102390000C94AB1180916604982F9670963019F4C6
:1023A00088600C94C611877FFCCF21E030E001C02B
:1023B000220F8A95EAF720958091660482230C9477
:1023C000C611909113028095892380931302282FC0
:1023D000277091F4282F082E000C330B9217130648
:1023E00059F09091330492FD07C0859585958595A8
:1023F0000E94D5110C94C90A0895CF93C09133045B
:10240000C2FB992790F9981799F080FBC2F9C09305
:1024100033046091320484E090E00E94E2316C2F3A
:1024200082E290E00E94E23182E0CF910C94E111CF
:10243000CF91089521E030E001C0220F8A95EAF79C
:1024400080916604822B0C94C6119091330492FD06
:1024500010C098E0899F90011124622B60931302B1
:102460000E941A120E94ED059093120280931102AD
:1024700008950C941A12809337020C94AB111092A9
:10248000D90280911C01EEE7F1E0882359F0809198
:10249000320487FF07C08EE1DF011D928A95E9F7BC
:1024A0000C94AB1186E0F8CF1F93CF93DF93CDB799
:1024B000DEB7AA970FB6F894DEBF0FBECDBF8EE58C
:1024C00094E02091F100DC012D93CD01B4E086363B
:1024D0009B07B9F780915F04833009F472C0B8F4A8
:1024E000813009F449C0823009F4B3C08091E8001A
:1024F00083FF96C280915E0490915F049A3008F049
:102500008FC2E92FF0E0E05EFD4C0C9491318A30EF
:1025100009F48EC08B3009F471C0893039F780918D
:102520005E04813219F780916204909163040097F0
:1025300011F00297D9F68091E800877F8093E80038
:102540008091E80082FF38C09091F3008091F20002
:10255000029731F48091F100813011F0863021F43E
:102560008091F100809339048091E8008B7780930B
:10257000E8000E94CA04BACF80915E04813A09F053
:10258000B5CF8091E800877F8093E8008091620456
:1025900090916304892B61F460E28AE394E070E037
:1025A0000E947C058091E8008B778093E8009ECFA5
:1025B00060E090E080E0F3CF80915C048111C0CFB7
:1025C00095CF80915E04813A09F090CF80916204AA
:1025D00090916304892B09F089CF8091E800877F6F
:1025E0008093E8008091E80080FFFCCF80911C017F
:1025F0008093F1008091E8008E77B9CF80915E04DE
:10260000813209F073CF8091620490916304892B29
:1026100009F06CCF8091E800877F8093E8000E94EA
:10262000CA048091600480931C010E943F125ECF17
:1026300080915E04813209F059CF8091E800877F54
:102640008093E8000E94CA0480916104809338045A
:102650004DCF80915E04813A09F048CF8091E80027
:10266000877F8093E8008091E80080FFFCCF809115
:102670003804BECF803899F0823809F0D1C18091FA
:1026800062048F70873008F0CBC18093E90080919D
:10269000EB0085FB882780F91092E90006C0809145
:1026A0005A0490915B04911182609091E800977FA9
:1026B0009093E8008093F1001092F1008091E8007F
:1026C0008E77AAC1882309F498C1823009F0A8C185
:1026D0008091600481119BC1809162048F702FEF03
:1026E000280F263008F09CC18093E9002091EB0070
:1026F00020FF8DC1933031F48091EB008062809394
:10270000EB0085C19091EB0090619093EB0021E08C
:1027100030E001C0220F8A95EAF72093EA00109278
:10272000EA008091EB008860EACF811179C11091B5
:1027300060041F778091E3008078812B8093E30011
:102740008091E800877F8093E8000E94CA0480910E
:10275000E80080FFFCCF8091E30080688093E30075
:1027600082E0111183E080935C045AC1805882306A
:1027700008F056C120916004309161042C3DE3E0E3
:102780003E07A1F583E08A838AE289834FB7F894F4
:10279000DE01139620E03EE051E2E32FF0E050939B
:1027A0005700E49120FF03C0E295EF703F5FEF70A8
:1027B0008E2F90E0EA30C0F0C7968D939D932F5FE7
:1027C000243159F74FBF8091E800877F8093E8005C
:1027D0006AE270E0CE0101960E947C058091E800DB
:1027E0008B778093E8001CC1C096E7CF809162048C
:1027F00090916304432F55274330510509F44AC093
:1028000078F54130510509F485C08BE590E0EEE69E
:10281000F7E04230510509F003C12091E800277F1D
:102820002093E80020916404309165048217930797
:1028300008F49C0140E02115310509F070C04111F8
:102840006EC08091E80082FDC9CF80915C0488232E
:1028500029F2853019F28091E80083FFF2CFBECFD4
:102860004132510509F447C04232510509F0D8C040
:102870008330910508F0D4C0FC01EE0FFF1FE25930
:10288000FE4F0190F081E02D85599E4FDC018C9127
:1028900090E01DC0332721303105E9F021153105C5
:1028A00079F022303105F9F02330310509F0B8C054
:1028B000EBEDF7E0E4918E2F90E0EBEDF7E007C051
:1028C000E7E2F8E0E4918E2F90E0E7E2F8E000978D
:1028D00009F4A6C0A2CFEDE0F8E0E4918E2F90E0DD
:1028E000EDE0F8E0F4CFE9EFF7E0E4918E2F90E02F
:1028F000E9EFF7E0ECCF8330910508F091C0880F45
:10290000991FFC01EC58FE4F0190F081E02D89E009
:1029100090E083CF82E190E0E9ECF7E07ECF809118
:102920005C04882309F45ACF853009F457CF80918D
:10293000E80083FD53CF8091E80082FD82CF809133
:10294000E80080FF78CF9091F3008091F20021158C
:10295000310519F08830910550F041E0089709F0F1
:1029600040E08091E8008E778093E80064CF449146
:102970004093F1003196215031090196E8CF80381B
:1029800009F04EC08091E800877F8093E800809135
:102990005D048093F10092CE811142C010916004D9
:1029A0001230F0F58091E800877F8093E800109363
:1029B0005D040E94CA04112311F084E005C08091D7
:1029C000E30087FDFACF81E080935C0442E061EC94
:1029D00081E00E94E90442E261EC84E00E94E904A3
:1029E00042E261EC82E00E94E90442E260EC83E0B2
:1029F0000E94E90480915C0413C0809160048130DE
:102A000079F481E0933009F080E080935B041092C8
:102A1000E9008091E800877F8093E8000E94CA0463
:102A20008091E80083FF0AC08091E800877F80934F
:102A3000E8008091EB0080628093EB00AA960FB6CD
:102A4000F894DEBF0FBECDBFDF91CF911F910895E7
:102A5000882321F00E94B50A0C94C310089588239E
:102A600039F090916704982B909367040C94C310ED
:102A70000895882321F00E94BC0A0C94C310089585
:102A8000882321F00E94C30A0C94C3100895882360
:102A900079F19CEF980F913A38F4682F8CE791E028
:102AA0000E94F9050C94C31090E2980F983050F4EE
:102AB000877091E001C0990F8A95EAF7892F0E94EB
:102AC000BC0AF0CF9BE5980F933020F490E080E0B3
:102AD0000C946E0698E5980F973120F490E080E012
:102AE0000C945806803F20F00E942F070C94080792
:102AF0000895CF93DF93EC010E944715CE010E9409
:102B0000920B9E01205E31092830310510F0CD2B4B
:102B100021F4DF91CF910C943915DF91CF910C9472
:102B2000281569EE7EEF90E080E00E94003260E0C0
:102B300082E090E00E94E23160E083E090E00E9459
:102B4000E2311092370260E084E090E00E94E231CE
:102B500060E082E290E00E94E23160E085E090E097
:102B60000E94E23160E086E090E00E94E2316FEF87
:102B700087E090E00E94E23140E050E0BA0188E056
:102B800090E00E94F43160E08DE090E00E94E2313C
:102B900040E050E0BA0188E190E00E94F43160E04A
:102BA00087E190E00E94E23140E050E0BA018CE120
:102BB00090E00E94F43170E060E080E290E00E94DA
:102BC000003240E050E0BA0188E190E00E94F43128
:102BD00080E00E943B0E0E94F50E40E050E0BA01FA
:102BE0008FE090E00E94F43140E050E0BA0183E1D0
:102BF00090E00C94F431EBEFE80FEF3308F072C083
:102C0000F0E0E65DFD4C0C9491310E94911581E05D
:102C100008958091A703807F8093A70381E080932C
:102C2000A603089580911A0190911B01892B79F3D5
:102C30000E943F122FEF84E39CE02150804090409F
:102C4000E1F700C000000E94560C9091A703892F65
:102C50008E7F90FF81608093A70380FDD8CF817F16
:102C60008093A703D4CF9091A703892F8D7F91FFE5
:102C700082608093A70381FFCACF8091A703816000
:102C8000EFCF9091A703892F8B7F92FF8460809371
:102C9000A70382FDF2CFBBCF9091A703892F877F37
:102CA00093FF88608093A70383FDE7CFB0CF0E9496
:102CB0003F1290913204892F97FB87F980588093B7
:102CC0003204A5CF81E00E943B120E943F129FCFA9
:102CD000895391E001C0990F8A95EAF7892FF3CFC4
:102CE0008D51F7CF80E00895CF93C82F882309F442
:102CF00067C08CEF8C0F813A08F0EBC08091A6037F
:102D00008130C9F1882369F1823009F44FC01092F3
:102D1000A60380911C01882309F4C8C08091320465
:102D200087FFC4C0EC2FE695E695E695F0E0E45801
:102D3000FE4F828190E04C2F477021E030E002C0CE
:102D4000220F331F4A95E2F782239323892B09F43C
:102D5000B8C06C2F8CE791E00E94F9050E94C31067
:102D6000B0C08091D9028232A1F68C2F0E94FB154F
:102D7000811126C0CECF8091D9028232B1F3C43105
:102D800071F038F4CB3049F0C03161F080E08170EF
:102D9000EFCFC93221F0C833C9F781E0F8CF1092E4
:102DA000A603F4CF82E08093A603F7CFC93209F4DB
:102DB0003FC0E8F4C431E1F128F4C73009F45BC046
:102DC000CF91089582EE8C0F8A30D0F7CD51C09309
:102DD000A101C33009F446C0B0F5C13009F43FC0C9
:102DE00084E191E0C230B1F11092A101E9CFC03588
:102DF00009F454C0B8F48AE0CF3411F7E0919F0190
:102E0000F091A0013097E1F22081082E000C990B7F
:102E1000820F911D8F3F910509F00CF443C08FEF95
:102E20008083CECFC135E1F181E0C23539F3C8CF1F
:102E30008091A101882321F21092A1011092A0019A
:102E400010929F01BDCFC53099F078F08EE091E0EF
:102E5000C63051F69093A00180939F01B1CF85E1D8
:102E600091E0F8CF83E191E0F5CF82E191E0F2CFFC
:102E70008FE091E0EFCF81E08093150184E18093B2
:102E800014018AE0809313018EE18093120188E09F
:102E900080930F0188E280930E0192CF86EFAECF30
:102EA0008FEFACCF97FFBCCF10828ACFEEE7F1E077
:102EB00084E891E02191C21709F44BCF8E179F0748
:102EC000C9F76C2F8CE791E00E942306CF910C94F8
:102ED000C31080E28C0F883048F4C77081E001C0D5
:102EE000880FCA95EAF70E94C30AF0CFEBE5EC0F12
:102EF000E33040F4F0E0EB5DFE4F808190E0CF9155
:102F00000C946E06E8E5EC0FE73150F4F0E0EE0FBC
:102F1000FF1FE85DFE4F80819181CF910C94580690
:102F2000C03F08F44DCF8C2F0E944A08CF910C94DB
:102F300008071F93CF93DF93182FC091C803D09138
:102F4000C903893321F0C091C603D091C703812FF3
:102F50000E947416209731F4812FDF91CF911F9139
:102F60000C9447158FE99FE00197F1F700C000002E
:102F70002197F0CF0F931F93CF93DF93C42FD22FBE
:102F8000FC0182818823A1F04093CC030E94ED05CF
:102F90009093CB038093CA03C77081E001C0880F70
:102FA000CA95EAF7DF91CF911F910F910C944015CC
:102FB0001091CC03141339C08091CA039091CB03B4
:102FC0000E94DE052091C0033091C1038217930750
:102FD00060F5C0E2CD0F1D17B9F080E2810F883097
:102FE00040F4177081E001C0880F1A95EAF70E943B
:102FF0003915C83048F481E09D2F977001C0880FC3
:103000009A95EAF70E944015802F0E949917C830C0
:1030100098F4D77081E001C0880FDA95EAF7DF9164
:10302000CF911F910F910C943915C77081E001C0A9
:10303000880FCA95EAF7F3CFDF91CF911F910F91D7
:103040000895AF92BF92CF92DF92EF92FF920F93CB
:103050001F93CF93DF93EC018AE0A82E28812223CF
:1030600009F48CC02130C9F599818A81913021F40D
:1030700022960E94991705C0923029F422960E9448
:1030800074162196EBCF933021F422960E944715B7
:10309000F8CF943011F02196F4CF229630E020E062
:1030A000AE014F5F5F4F8053990B8A30910550F00E
:1030B0002150310930F38FE99FE00197F1F700C00B
:1030C0000000F6CFA29EB001A39E700D11249C01BA
:1030D000260F371F8981EA01E3CFE22FF0E0E650A7
:1030E000FE4FB490822F86958695869590E0FC01E0
:1030F000E651FE4FE4902770F12C022E02C0F594A9
:10310000E7940A94E2F731E0E322FF24FC01E6525F
:10311000FE4FC490D12C022E02C0D594C7940A94BD
:10312000E2F731E0C322DD24FC01E653FE4F0491B7
:1031300010E002C0159507952A95E2F70170112756
:10314000E114F10419F081EE0E947416C114D10447
:1031500019F086EE0E9474168B2D0E949917CD28C7
:1031600019F086EE0E944715EF2819F081EE0E94B3
:103170004715012B09F485CF8CE27BCFDF91CF91EE
:103180001F910F91FF90EF90DF90CF90BF90AF9085
:103190000895CF93DF93EC010E94920B9E01205E75
:1031A00031092830310510F0209739F40E9440157C
:1031B0008C2FDF91CF910C9474160E942F15F8CFAD
:1031C000662329F0209167042260209367049C0104
:1031D0003056211540E2340720F0305E2115304191
:1031E00008F499270C94C918DF92EF92FF920F937D
:1031F0001F93CF93DF937C018B01D42E8091180114
:1032000082FF8CC0C091FC02D091FD02CE15DF057B
:1032100021F0E114F10409F081C0809118018B7F45
:103220008093180181FD73C08091FA029091FB0296
:10323000A801481B590B81E020911601309117011C
:103240004217530708F480E08170F82E809118012E
:10325000F0FA81F980931801FE0183E0F695E79575
:103260008A95E1F7EE71FF27E652FD4F208131810B
:10327000AE014F70552781E090E002C0880F991F82
:103280004A95E2F7FF2009F444C0822B932B9183E7
:1032900080838091D90281FF08C0809118018061EC
:1032A0008093180182E00E94BC0A8091D90285FFB8
:1032B00008C08091180180628093180180E20E940A
:1032C000BC0A6F2DCE010E94E018DD2031F0809104
:1032D000C30385FF02C086FF3BC08091C603909167
:1032E000C7030E947A0C8091FC029091FD029C0120
:1032F0003056211540E2340720F0305E2115304170
:1033000008F499270E9479150E948D111DC081E053
:103310009BCF8095909582239323B9CFC70199279E
:1033200097013056211540E2340728F0305E211510
:10333000304108F0C7010E9479158091FC029091FC
:10334000FD028E159F0501F31093FB020093FA0214
:10335000DF91CF911F910F91FF90EF90DF90089533
:103360008F929F92AF92BF92CF92DF92EF92FF9295
:103370000F931F93CF93DF9300D000D0CDB7DEB76C
:103380007C01DC0113964D915C91149711966C9120
:1033900011978C910E949006811179C061E0C7015C
:1033A0000E94670D8C01F7018281811111C0D70144
:1033B00012968C91811149C00031FFE51F0709F475
:1033C000EEC001312FE5120709F017C782E0E8C00F
:1033D00080910C0190910D01019649F36FECC62E7E
:1033E00063E0D62EB12CA12C9924939480910C01EA
:1033F00090910D018A159B05D4F2F60186818823F0
:10340000E9F0818592850817190739F48091CD0379
:103410009091CE030817190789F0D6011F969C9248
:103420001F971C961C930E931B97C6010E946C114C
:10343000C60106960E94271110926704BFEFAB1ACF
:10344000BB0AE6E1CE0ED11CD1CF980122513F45F7
:103450002031310508F0C7C68FEF93E00E94D431C8
:103460005EEED52ED00E01E913E0882369F180913C
:103470001302877061F0D70112968C91882339F07E
:103480008091330482FD03C082E00E94E1110F901D
:103490000F900F900F90DF91CF911F910F91FF90A0
:1034A000EF90DF90CF90BF90AF909F908F90089556
:1034B0000115F4E01F07D9F2C8010E94D43181112F
:1034C00001C0DA940F5F1F4FD110F2CF19821A8218
:1034D0001B821C82CC24CA9448012FEF821A920AC4
:1034E000C8010E94D43189831A82882309F4BFCF8E
:1034F000813009F048C0580132E0A30EB11CC4016C
:103500000E94D431982E8A83882309F4B0CFC50154
:103510000E94D431D82E8FEF890D833068F4580182
:1035200043E0A40EB11CDB82DD2021F0CE01019628
:103530000E9421188501D0CF54E09512FBCF58018D
:1035400084E0A80EB11CC80103960E94D431DD208E
:1035500009F48DCF882309F48ACF8150990BC89E36
:103560009001C99E300D1124AD2DA150BB0BCD0192
:10357000820F931F0197F0F2EFE9FFE03197F1F727
:1035800000C00000F7CFCE0101960E94211854011F
:10359000D1CF81E00E941A120E94CA1168CF81E047
:1035A0000E94D511F9CF82E0F5CF4FEFC416D104B8
:1035B00011F008F02EC66BE772E08C2D0E94040F0C
:1035C000892B29F586E18C9DF0018D9DF00D11244C
:1035D000E153FC4F8681813009F062C080917B020B
:1035E00090917C02892B99F080917D0290917E02CE
:1035F000892B69F080917F02909180022091810255
:1036000030918202822B932B892B09F453C0809135
:103610000C0190910D018C159D0524F4D0920D01A3
:10362000C0920C01F701828196E19C9D50019D9D05
:10363000B00C1124950121533C4F6901D9015096DA
:103640008C935097928116968C911697992309F432
:103650003FC01A961C930E9319978F5F16968C9302
:103660000E94ED05F6019687858780913602878353
:10367000809167049091D902892B80870190F08115
:10368000E02D309741F0D60154966D917C91C501A3
:103690008B529C4F09951093CE030093CD03B9C56F
:1036A000823009F0B4CF80917F0290918002892B03
:1036B00009F4ADCF26E12C9DC0012D9D900D112464
:1036C00081539C4FDC0150961C920E946C119FCF3D
:1036D000882309F49EC5F9018189882309F499C5D5
:1036E000C5018B529C4F0E94271193C580911801F0
:1036F000816080931801BBC5809118018E7F8093F3
:1037000018010E948D11B3C5809118018F7E013E72
:10371000110531F0053E1105C9F4809118018F7D26
:10372000809318018091180180FFB0C5D7011296CF
:103730008C910832110528F50E31110508F074C07E
:103740000430110580F581119DC5A0C5C8019056B2
:10375000811540E2940720F0905E8115904110F7AA
:103760008091180182FF92C58091C50381FD8EC5AD
:1037700023E532E040E0B60190E080E00E94F418DA
:1037800085C50933110558F40D32110518F40B32B3
:103790001105C9F69091C30392FDD5CF08C0043638
:1037A0001105C1F3D0CF9091C30394FDCCCF8823F2
:1037B00009F4A1C09091D90280913602282F292BBB
:1037C000322F3D7FB1F11092FD021092FC02309138
:1037D000C30331FD2EC0F80143E0F695E7954A9505
:1037E000E1F7EE71FF27E652FD4F98012F70332766
:1037F00081E090E002C0880F991F2A95E2F780953A
:10380000909520813181822393239183808360E08E
:10381000C8010E94E018809136028D7F0E94A10AA3
:1038200082E00E94E11123CE9091C30393FD8BCFE0
:10383000BECF38E0F701A3E5B2E001900D923A95D2
:10384000E1F7109255021092570210925602A09082
:10385000FC02B090FD020A151B05B1F53091C303BF
:1038600035FF32C04091180141FB992490F841FF87
:1038700002C036FF29C04091FA025091FB02B60106
:10388000641B750B4091C0035091C1036417750709
:10389000D8F491FF08C080911801806180931801CD
:1038A00082E00E94BC0A8091D90285FF08C0809105
:1038B000180180628093180180E20E94BC0A692D81
:1038C000C5010E94E018D3CD9091180121FB91F918
:1038D000909318018D7F0E94A10A1093FD0200931E
:1038E000FC02D092FB02C092FA028091180184601F
:1038F0008093180195CF970140E0B601C8010E945E
:10390000F418B5CD053F4CE5140709F469C008F477
:1039100061C0063F8CE5180709F468C0D70112960C
:103920003C91332309F4D1C41092CC030330BDE59C
:103930001B0708F067C00A3FECE51E0730F4C8011A
:1039400082509C45449708F067C00E948E0D90936A
:1039500033048093320401313CE5130709F46CC150
:1039600008F0E9C009305CE5150709F453C108F017
:10397000B6C005309CE5190709F444C108F09CC0A5
:103980000330BCE51B0709F433C108F037C180914F
:103990003204816002301C4509F42DC1609132046B
:1039A0001091330484E090E00E94E231612F82E2C2
:1039B00090E00E94E2310E943F1259CD07E225EECD
:1039C00045EE68ED7CE57DC406E221EE40EE63EF56
:1039D0007CE577C407E225EE44EE64EF7CE571C434
:1039E00006E221EE42EE65EF7CE56BC407E225EED0
:1039F00046EE66EF7CE565C408E221E045EE69ED40
:103A00007CE55FC40136FDE51F0709F49ECF053A4A
:103A10002DE5120709F499CF06315CE5150709F485
:103A200058C40A358DE5180709F45CC108F038C19F
:103A30000115ACE51A0709F445C10E3D1C4509F412
:103A40004EC1F70186819781009709F44FC10E940A
:103A50000E09182F092FF701D280C580C2943FE0CC
:103A6000C322809113028770C1F0AD2CDD20B1F02C
:103A7000892F807F803421F080E2810F883068F0C8
:103A80008091330482FD09C082E00E94E11180919F
:103A900013028770AA24A3948111A12C902E9294D2
:103AA0002FE09222FBE0F91508F4ADC1E92DF0E01A
:103AB000E759FD4C0C9491318091320480620730BB
:103AC0002CE5120709F497C0809132048061083018
:103AD0001C4508F490C08091320480648CC08091B1
:103AE00032048B7F0D304CE5140709F484C080F458
:103AF0000B308CE5180709F493C0809132048C6078
:103B00000C301C4508F477C0809132048D7F73C05F
:103B1000809132048F7E0F30ACE51A0709F46BC038
:103B200080913204877F00311C4508F464C0809185
:103B300032048F7D60C00D3FECE51E0709F478C0AC
:103B400050F505312CE5120709F480C098F48091F6
:103B50003204837F03314CE5140709F44CC008F4A8
:103B60006FC00E943F1290913204892F97FB87F912
:103B7000805841C00B3F8CE5180709F447C008F096
:103B800053C08091330481600A3F1C4509F006CF81
:103B90008093330403CF0130BDE51B0709F462C0F5
:103BA000B8F4809133048C7F0F3FFCE51F0781F34D
:103BB00080913304836001151D4550F380913304D7
:103BC000982F909591708E7F892B90FB81F9E0CF93
:103BD00001363DE5130709F44BC0053A4DE51407DE
:103BE00009F44DC002301D4509F0D8CE60E03BC05D
:103BF00080913204826080933204D0CE809132046E
:103C00008460F9CF809132048860F5CF80913304CD
:103C10008260BECF0E943F12809132048068EBCF59
:103C2000809132048E7FE7CF809133048E7FB0CFB6
:103C3000809133048D7FACCF809132048F7BDBCFBA
:103C40000E943F12809132048F77D5CF8091320449
:103C500082FB992790F921E0922790FB82F990FB53
:103C600083F9C9CF61E08EE090E00E94E23196CE08
:103C700090913204892F8F7E94FF8061BCCF909108
:103C80003204892F8E7F90FF8160B5CF80919C0197
:103C900069E2811165E38CE791E00E94F90546C372
:103CA0000B35EDE51E0701F10C351D4509F0C9CEB8
:103CB0008091330482FB882780F991E089270E9454
:103CC000FD11BFCE0E943F122FEF34E34CE0215094
:103CD00030404040E1F700C000000E94560C0E94B6
:103CE0009115C5CB81E0EBCF80E0E9CF82810081E7
:103CF0001181882369F0C8010E94F50CD82E682F25
:103D0000C8010E94470BB8018D2D0E94D90C9FCE8F
:103D1000C8010E941A0BD82EF6CF202F2F70B22E7A
:103D2000802F807F19F0B29490EFB922DD20A9F0A6
:103D3000BB2059F080E2810F883010F0111107C0CC
:103D40008B2D0E94C30A0E94C310812F5AC08091FC
:103D50006704B82AB0926704F6CF812F0E944715F6
:103D6000BB2009F450C080E2810F883010F011119F
:103D700004C08B2D0E94BC0A03C08B2D0E94B50A83
:103D80000E94C31040C0302F3F70B32E802F807F21
:103D9000803219F0B29480EFB822112321F1113052
:103DA00009F4A4C0DD2009F4ADC0CC2009F47DC025
:103DB00020E0D7014C9111965C91119712966C916D
:103DC000129713967C91139714968C910E943E0D36
:103DD0008091C50381FDB9CFF701858180FFB5CF03
:103DE0008F70858362C08091330482FF40C0DD20E4
:103DF000C1F1BB2029F08B2D0E94C30A0E94C31081
:103E000080E00E947416A92DA850BB0B149710F4E3
:103E10000E948406812F902F0E94770B8111C4C1CC
:103E200010929E0110929D01AA20B1F08091130280
:103E300080FD12C0D70112961C92859585958595B7
:103E40000E941A12C7010E94B01980911302859531
:103E5000859585950E94D51160E0C7010E94670D88
:103E600016CB80E00E944715BB2069F282CFDD208F
:103E700001F1C11004C0809136028B2917C041E0C6
:103E8000C41206C0809136028B290E94A10ABBCFC2
:103E90008091C403823078F3C812EDCF0E94960A55
:103EA00080911002B812B09210028B2D0E94401522
:103EB000AACFC11006C00E94960A8B2D0E94391508
:103EC000A2CF8091C40351E0C5120BC0823008F428
:103ED0009ACF8091D9028B2109F495CF0E94EA0AEA
:103EE000EACF823040F3C812E6CF8DCFDD2029F033
:103EF00085E08C1508F487CFD8CF94E09C1508F4A2
:103F000082CFDBCFCC20C9F28091C8039091C90346
:103F1000193321F08091C6039091C7030E947A0C57
:103F2000812F0E9447156FCF802F869586958370CD
:103F300069F0813009F067CF812F902F9370D110F5
:103F400002C090E080E00E9458065DCF812F902F44
:103F50009370D11002C090E080E00E946E0653CFB3
:103F6000812FDD2029F00E944A080E9408074BCFCC
:103F70000E942F07FACF802F837091F5D11043CF85
:103F8000412F429546954770440F440F812F8F7003
:103F9000042E01C0880F0A94EAF7212F207114FF24
:103FA00007C02FE030E001C0220F4A95EAF72095C4
:103FB000302F369536953370323069F050F4409199
:103FC0003702313029F0822B84230E943B121BCF11
:103FD000842B822BFACF282B809137028227F5CFB2
:103FE0008695DD2011F0802F8170882309F40BCF96
:103FF000412F429546954770440F440F812F8F7093
:10400000042E01C0880F0A94EAF7212F207114FFB3
:1040100007C02FE030E001C0220F4A95EAF7209553
:10402000302F369536953370323069F050F4409128
:104030006604313029F0822B84230E94C611E3CE1E
:10404000842B822BFACF282B809166048227F5CF10
:10405000F02FFF70BF2EDD2029F08F2F0E941A1243
:10406000812F24CF812F0E9439158B2D0E94D511CD
:10407000CACE123F89F160F4103FB9F0113F81F0D0
:10408000DD2009F48CC0C11060CE802F8F7128C054
:10409000133F49F1143FA1F78091330482FF2FC0F1
:1040A000802F8F71DD2011F31BC0DD2081F024E013
:1040B0002C1508F4A8CE202F2F7181E090E001C0CC
:1040C000880F2A95EAF7909166048927B6CF35E0E4
:1040D0003C1508F498CEEFCF802F8F71D110C6CF4A
:1040E0000E941A1290CE80E0DD2009F4A6CF81E074
:1040F000902F9F7101C0880F9A95EAF79ECF80910B
:10410000C4038230A0F180911002DD20F1F00E9402
:10411000BC0A809113028770843041F40E94C90A5E
:10412000802F8F710E94D511A12C6DCE8091C40378
:10413000C816D0F7402F4F71B42E842F0E941A1248
:1041400063E08B2D0E942512EFCF0E94C30A80915D
:10415000C403C81640F00E94C90A0E94EA0A64E03B
:10416000802F8F71EFCF81E00E94E111DDCFDD2044
:1041700059F0502F5F71B52E852F0E941A1263E0FF
:104180008B2D0E9425123FCE81E00E94E11181E03B
:104190008C1508F038CE82E00E94E11134CEC110B7
:1041A000B3CE802F8F7162CFDD2019F0C11038CED1
:1041B0003BCEC11035CE20E0F701408151816281B4
:1041C000738184810E943E0D8091C50383FF28CEB8
:1041D00080919D0190919E01029709F021CE812F3F
:1041E0000E9499171DCE0031BFE51B0709F4D1C904
:1041F0000131EFE51E0709F4D6C9680127E5D21A97
:10420000882309F4D2C93FEFC316D10409F008F49A
:10421000FEC98091C30380FF39C00E94ED056C0187
:10422000D70112968C91882309F46ECA80911801E7
:1042300082FF08C023E532E040E0B60190E080E074
:104240000E94F4180B31BCE51B0709F44FCA0C316E
:10425000ECE51E0709F450CA90911801892F8E7F52
:1042600090FF81600A31FCE51F0709F448CAC801C4
:104270009056811520E2920728F0905E81159041BA
:1042800008F050CA1092FD021092FC02033FBCE5F8
:104290001B0709F499CB08F035CB083DFCE51F0757
:1042A00009F48CCB093D2CE5120709F4A5CB073D99
:1042B0003CE5130709F032CB06E221EE41EE67ED53
:1042C0007CE5C7010E94BA17D2C806311C4509F027
:1042D000B8CB8091D902982F9A7A2091C20320FFFF
:1042E00004C0482F447409F090E021FF04C0482F17
:1042F000417109F090E022FF04C0482F487809F08E
:1043000090E023FF03C0827209F090E0332309F4A8
:10431000BDCC81E0911101C080E080939C0169E2F5
:10432000911165E38CE791E00E9423060E94C3107F
:104330009EC8CF92DF92EF92FF920F931F93CF937D
:10434000DF938091CB01807F31F48091C801C091CF
:104350000F0281110BC0DF91CF911F910F91FF9040
:10436000EF90DF90CF9008952196C7708091CE0195
:104370008C1789F3F090C601E090C701C090C90185
:10438000D090CA01A6016E2D8F2D0E949006D0E01C
:104390008111EACF8E0183E0000F111F8A95E1F7AA
:1043A000F801E153FE4F81818E11DECF80818F11A4
:1043B000DBCF82818111D8CFE380F480EC18FD0837
:1043C00060E086EC91E00E94670D8091C0039091BF
:1043D000C103E816F90640F68091CB018F70806129
:1043E0008093CB01F801EC52FE4F80818F70806189
:1043F000808386EC91E00E94B019DF91CF911F91EC
:104400000F91FF90EF90DF90CF900C94100B3F92A4
:104410004F925F926F927F928F929F92AF92BF92D4
:10442000CF92DF92EF92FF920F931F93CF93DF9380
:10443000CDB7DEB765970FB6F894DEBF0FBECDBF20
:104440008C0185E0F801DE01519601900D928A956C
:10445000E1F7D8014C9011965C9011971296EC9070
:1044600012971396CD90DC9060E086EC91E00E946C
:10447000670D86ECA82E81E0B82E8090C90190903F
:10448000CA01A4016091C7018091C6010E949006F3
:104490008111CAC1F090C801F601E819F9094F016C
:1044A00060E0FF2009F46DC1C5010E94670D6090B6
:1044B000C0037090C1033090CB018614970408F0BC
:1044C00013C14091C9015091CA01B090C601A0909A
:1044D000C701832D807F6A2D09F0ADC08B2D0E940E
:1044E0009006FE2C81113BC0D80111968C9111973A
:1044F0008A1135C08C918B1132C02091CC01309142
:10450000CD0116968D919C912817390741F5E11040
:1045100026C0832D8F7080618093CB0186EC91E063
:104520000E94B0198091CB01F80185838F2D65968B
:104530000FB6F894DEBF0FBECDBFDF91CF911F91B4
:104540000F91FF90EF90DF90CF90BF90AF909F9032
:104550008F907F906F905F904F903F900895F4EF11
:104560006F16F1E07F0620F48091C50380FF21C023
:10457000A601652D842D0E949006811118C081E04E
:104580008E2580FF16C04E2D652D842D0E94F00AC9
:10459000882379F086EC91E00E94B01988E0E6EC7F
:1045A000F1E0DF011D928A95E9F7F12CBFCF80E0A1
:1045B000E8CFA601652D842D0E949006811124C0AC
:1045C00081E08E25B82FB170CB2E80FF2BC04E2DF1
:1045D000652D842D0E94F00AD82E811123C0498AAE
:1045E0005A8A89899A890E94240D292F22952F7031
:1045F000223060F0243088F49F7061F0F8019581DA
:10460000907F41F4FD2C92CF80E0DCCF9F7011F0C1
:104610008823C1F3805E8830A8F3C8010E94B019D6
:10462000DC2CF0CFEE2009F481CF8091CB018160AA
:104630008093CB01BACF8B2D0E949006811124C0AC
:10464000D80111968C9111978A111EC08C918B11F3
:104650001BC02091CC013091CD0116968D919C917B
:1046600017972817390781F4E1100EC015963C9270
:10467000C8010E94B01988E0F801A6ECB1E00190F1
:104680000D928A95E1F752CFC8010E94300D882320
:1046900039F1EE2029F18091CB018032A0F02091F8
:1046A000C6013091C7013A8729871B86DD86CC86F3
:1046B0008E878091CC019091CD01988B8F87CE0110
:1046C00009960E94B01988E0F801A6ECB1E00190CB
:1046D0000D928A95E1F70E949921FF24F39426CF49
:1046E000C8010E94B019F9CF832D807F09F452CF01
:1046F0009090C6018090C7014091C9015091CA01B4
:10470000682D892D0E94900681111CC0F8018181BD
:10471000881118C08081891115C02091CC01309179
:10472000CD01868197812817390761F4E1100AC00D
:104730003582C8010E94B01988E0D5011D928A9582
:10474000E9F7F4CEC8010E94300D882349F2EE202B
:1047500039F28091CB01803208F4B5CF2091C601A7
:104760003091C7013A8329831B82DD82CC828E83FC
:104770008091CC019091CD0198878F83CE010196D5
:10478000A0CF86EC91E00E94670D8091C0039091CC
:10479000C1038816990680F6FE2CEE2009F4A0CFFE
:1047A000E090C601D090C7014091C9015091CA0163
:1047B0006D2D8E2D0E949006811128C0F8018181F7
:1047C0008D1124C080818E1121C02091CC013091A7
:1047D000CD018681978128173907C1F48091C503DF
:1047E00082FD49CF9091CB0190FD45CF907F09F498
:1047F00042CF8091CB018583903F09F439CF982F28
:10480000907F905F8F70892B858332CFC8010E9483
:10481000300D811158CF8091CB0181608093CB0105
:10482000C8010E94B01982CEEE2009F459CFC80108
:104830000E94300DF82E882309F452CF88E0F80149
:10484000A6ECB1E001900D928A95E1F78091C60146
:104850009091C7010E94240D0E94992167CECF93A9
:10486000DF93CDB7DEB760970FB6F894DEBF0FBE0B
:10487000CDBF29873A874B875C876D877E878F8777
:10488000988BCE0109960E94072281112FC088E0E3
:10489000FE013996DE01119601900D928A95E1F79D
:1048A0004C855D856A8589850E94900681111EC0B0
:1048B000A091CE01B0E0CD0101968770992720919B
:1048C0000F022817190609F193E0AA0FBB1F9A954A
:1048D000E1F7A153BE4F98E0FE01319601900D9291
:1048E0009A95E1F78093CE010E94100B80910F0200
:1048F0009091CE01891317C060960FB6F894DEBF71
:104900000FBECDBFDF91CF9108950E943F1210924C
:10491000CE0110920F0288E0E6ECF1E0DF011D927B
:104920008A95E9F7E3CFB8E08B9FC001112481534A
:104930009E4F0E9407228823F9F280910F0290E097
:1049400001968770992780930F02D0CFEF92FF9244
:104950000F931F93CF93DF9380910103882361F01E
:10496000C09100038CE0F82E80910103C81758F025
:104970001092010310920003DF91CF911F910F91CC
:10498000FF90EF900895EE24E394EC0EE092000384
:104990000C2F10E0CF9DE0011124CE5FDC4F4B8146
:1049A0005C81698188810E94900681111DC08E8181
:1049B0009F81892B21F488859985019651F428815E
:1049C00039814A815B816C817D818E819F810E94CA
:1049D0002F24F09EF001F19EF00D1124EE5FFC4FAC
:1049E0001482138210926704CE2DBECF1092A503BD
:1049F0001092A403109219018091A3038093A20343
:104A00000E94C9060C94A6243F924F925F926F9227
:104A10007F928F929F92AF92BF92CF92DF92EF924E
:104A2000FF920F931F93CF93DF93C091A20397E060
:104A3000892E01E010E02CE0322E3EEF932E44242C
:104A400043948091A3038C1315C00E94A624DF9188
:104A5000CF911F910F91FF90EF90DF90CF90BF907B
:104A6000AF909F908F907F906F905F904F903F900E
:104A70000C94C906D0E0FE01EE0FFF1FE656FC4F76
:104A800080819181889ED001899EB00D1124AE59FC
:104A9000BC4F14962C911497211157C050900103CC
:104AA000E2E0F3E030E020E0712C5D01251508F034
:104AB0004AC0E284F384D501CD90DC906FEF7FEFA4
:104AC000612C462D50E0DA01AA0FBB1FAC0DBD1DB5
:104AD0000D90BC91A02D109731F0EA16FB0609F459
:104AE000BA016394EECF6F3F7607A1F1D80102C0FF
:104AF000AA0FBB1F6A95E2F77A2AB80102C0660FB7
:104B0000771F6A94E2F7AB014150510974161506FC
:104B1000F9F4329EF001339EF00D1124EE5FFC4F4C
:104B2000889ED001899EB00D1124AE59BC4F1296BB
:104B30002D913C91139737832683908291829187A0
:104B4000808715964C920E949B062196C37079CF60
:104B5000148213822F5F3F4F3C96A8CF2F923F9233
:104B60004F925F926F927F928F929F92AF92BF927D
:104B7000CF92DF92EF92FF920F931F93CF93DF9329
:104B8000CDB7DEB769970FB6F894DEBF0FBECDBFC5
:104B9000942F498B252F5A8B6B8B7C8B8D8B4C895B
:104BA0005D89622F892F0E949006811109C0809132
:104BB0009D0190919E01019690939E0180939D018D
:104BC0008B898111109267041D861E861F86188AA4
:104BD00085E0FE017196DE01199601900D928A958D
:104BE000E1F78091330482FD1EC08091AA03909169
:104BF000AB03892BC1F00E94ED0520911102309189
:104C00001202821B930B2091AA033091AB038217EF
:104C1000930720F08091130282FFF5C10E94D00A11
:104C200081110E94960A4C855D856A8589850E945E
:104C30009006811111C061E0CE0109960E94670DB6
:104C40006C018B8527EFC2162CE5D20681F48823F0
:104C500021F181E08093190129853A854B855C8596
:104C60006D857E858F8598890E942F24C5C038EF79
:104C7000C3163CE5D30629F4882379F00E94F62474
:104C8000EBCF49EFC4164CE5D40639F4882329F05C
:104C9000809119018111F2CFDCCF02E613E0512C93
:104CA000B12CA12C22242394312C2EEF422EF8017A
:104CB0004081518188248A94982C20E0822F90E0B2
:104CC000FC01EE0FFF1FE40FF51F6081718161157C
:104CD000710531F0C616D70609F44C012F5FEECFEF
:104CE000F12CFFEF8F169F0609F448C0F8014481AC
:104CF000F09019018F2D411180E0F82FF170FF2EF7
:104D0000F801E58086819B85992309F40CC1FF2079
:104D100009F409C16090BE037090BF03E11012C096
:104D2000A10101C0440F8A94EAF7842B8683809105
:104D3000FE029091FF028615970520F47092FF0203
:104D40006092FE02C10102C0880F991F2A95E2F706
:104D50000197F80126812817190681F48091A40390
:104D60009091A503009709F460C00E94DE056816C3
:104D7000790608F05AC021E0F80124835F28FFEF8C
:104D8000AF1ABF0A095F1F4F28E0A216B10409F04D
:104D90008ECF8B85882309F421C1552009F41EC1CB
:104DA0000E94ED059093A5038093A40380910103D5
:104DB000883010F591E0980F9093010398E0FE0180
:104DC0003996DE01119601900D929A95E1F73CE03B
:104DD000839FC00111248E5F9C4F28E0FE01319615
:104DE000DC0101900D922A95E1F72FEF3FEFFC01D6
:104DF00031872087D386C28669960FB6F894DEBFC6
:104E00000FBECDBFDF91CF911F910F91FF90EF901B
:104E1000DF90CF90BF90AF909F908F907F906F90DA
:104E20005F904F903F902F9008958091A2035091F2
:104E3000A303982FF0E0E0E0851314C09093A20341
:104E4000E017F10709F49ACF90E0FC01EE0FFF1F85
:104E5000E656FC4FB182A082019683709927809319
:104E6000A3038CCF682E712CF301EE0FFF1FE656C3
:104E7000FC4F2081318147E0429FD001439FB00D1C
:104E80001124AE59BC4F6D917C911197798F688F29
:104E900040E020E030E0E32FF0E0EE0FFF1F688DF0
:104EA000798DE60FF71F8080918081149104E1F0E5
:104EB000F8010190F081E02DFF8BEE8B20E005C022
:104EC0008616970609F44F2D2F5FE22FF0E0EE0FC4
:104ED000FF1F6E897F89E60FF71F60817181611561
:104EE000710571F73F5FD7CF4423D1F0F801231745
:104EF00008F0FD0121E024830E171F0721F4909391
:104F0000A203F42E3BCF981305C0AE17BF0711F4D0
:104F10009F5F937093012F5F3F4F822F83708CCFE1
:104F2000F0E0E0E0F7CF90E0E1101FC0B10102C077
:104F3000660F771F2A95E2F79B01215031098217EE
:104F4000930731F4442309F447C0C5010E949B062E
:104F5000C10101C0880F8A94EAF7982F9095F80153
:104F6000868189238683FE2C09CF9C01082C02C0F0
:104F7000359527950A94E2F7A90141705527BC01A0
:104F80006150710986239723892B11F5452B01F177
:104F9000F80182819381892BC1F01B821C821D82C2
:104FA0001E8249824A820E94ED058160582F9D83AE
:104FB0008C83F801828193818F83988729813A813C
:104FC0004B816D817E810E942F24F8011582C0CF14
:104FD000F22FF170EF2EBCCFEF2CBACF9091A2033D
:104FE0008091A303981731F00E940425552009F4FD
:104FF00033CE02CF0E94A6241092A5031092A403E0
:105000000E94C906F3CF82E00E94E11107CECF9340
:10501000DF9300D000D00F92CDB7DEB79093D602C9
:105020008093D502811520E2920748F40F900F90EB
:105030000F900F900F90DF91CF910C9479158EEF18
:1050400089838A831B820E94ED058160782F9D836E
:105050008C8349815A816B818D810F900F900F90C5
:105060000F900F90DF91CF910C94AE250F931F936B
:10507000CF93DF938C01EB016BE772E08C2F0E94E2
:10508000040F892BA1F48091C6039091C7030E945D
:105090007A0CDD27C958DD4F8881F801108218820B
:1050A000833009F148F4813059F0823081F0DF918A
:1050B000CF911F910F9108958430D1F08530B9F7C9
:1050C00080917B0290917C02009789F306C08091C9
:1050D0007D0290917E02009799F3DF91CF911F910D
:1050E0000F910C94072880917F0290918002F3CF5A
:1050F0008091810290918202009779F720917B0242
:1051000030917C0280917D0290917E0221153105C3
:10511000D9F2009711F7C901E0CFCF93DF9300D008
:1051200000D00F92CDB7DEB79093D6028093D50210
:10513000811520E2920748F40F900F900F900F9086
:105140000F90DF91CF910C94C9188EEF89838A83D9
:1051500081E08B830E94ED058160782F9D838C8395
:1051600049815A816B818D810F900F900F900F9024
:105170000F90DF91CF910C94AE25CF93DF93EC018C
:105180000E948D288091C6039091C7030E947A0CDB
:10519000CE01DF91CF910C9407280F931F93CF93EB
:1051A000DF938C01862F6BE772E00E94040F892B3E
:1051B000C9F4C0917B02D0917C02209799F0F8014C
:1051C0008081833069F4CE010E94BD28CE010E9407
:1051D000BD28CE01DF91CF911F910F910C94BD2876
:1051E0008430B8F7DF91CF911F910F9108950F93FD
:1051F0001F93CF93DF938C01EB016BE772E08C2F51
:105200000E94040F892B09F064C0FE01FF27D8011A
:105210008C91E958FD4F8130D9F419969C911997DA
:10522000992311F080830CC01A969C919923D1F395
:1052300082E0808380917D0290917E020097D9F474
:1052400080917B0290917C02009709F442C013C0C8
:105250008230E9F519968C91199781112DC01A9613
:105260008C9181110EC083E0808380917F029091A8
:105270008002009719F1DF91CF911F910F910C944B
:105280008D2884E080838091810290918202009732
:1052900091F780917B0290917C020097F9F00E9437
:1052A000BD2880917D0290917E02009721F7809128
:1052B0007B0290917C02DFCF85E0808380917B022E
:1052C00090917C02009729F00E94BD28F0CF86E0E3
:1052D0008083DF91CF911F910F91089580917D027E
:1052E00090917E02B1CF1F920F920FB60F921124B0
:1052F0002F933F934F935F936F937F938F939F93DE
:10530000AF93BF93CF93DF93EF93FF93D091E900D7
:10531000DF708091EC00C82FC17080FDC0E8109252
:10532000E9008091F000877F8093F00078940E94DC
:1053300054121092E9008091F00088608093F00090
:10534000CD2BCF70C093E900FF91EF91DF91CF910A
:10535000BF91AF919F918F917F916F915F914F918D
:105360003F912F910F900FBE0F901F9018951F9295
:105370000F920FB60F9211242F933F934F935F9389
:105380006F937F938F939F93AF93BF93EF93FF930D
:105390008091E10082FF09C08091E20082FF05C098
:1053A0008091E1008B7F8093E1008091DA0080FFA3
:1053B00024C08091D80080FF20C08091DA008E7FC9
:1053C0008093DA008091D90080FF9DC080E189BD83
:1053D00082E189BD09B400FEFDCF81E080935C04C9
:1053E00080913704811109C00E9450040E941B055E
:1053F0008091E20084608093E2008091E10080FF70
:1054000017C08091E20080FF13C08091E2008E7F80
:105410008093E2008091E20080618093E2008091BD
:10542000D80080628093D80019BC85E080935C042A
:105430008091E10084FF2BC08091E20084FF27C0AF
:1054400080E189BD82E189BD89B5982F917080FF87
:10545000FBCF8091D8008F7D8093D8008091E100B0
:105460008F7E8093E1008091E2008F7E8093E20046
:105470008091E20081608093E20080915D04882346
:1054800009F447C084E080935C0480915C048091BF
:10549000E10083FF27C08091E20083FF23C0809159
:1054A000E100877F8093E10082E080935C041092AA
:1054B0005D048091E1008E7F8093E1008091E200A5
:1054C0008E7F8093E2008091E20080618093E20011
:1054D00042E060E080E00E94E9048091F000886092
:1054E0008093F000FF91EF91BF91AF919F918F91C9
:1054F0007F916F915F914F913F912F910F900FBED0
:105500000F901F90189519BC10925C0410923704EC
:1055100074CF8091E30087FD93E090935C04B5CF56
:1055200078941F921FB61F9211248F939F93AF936D
:10553000BF9380912E0490912F04A0913004B091DC
:1055400031040196A11DB11D80932E0490932F0468
:10555000A0933004B0933104BF91AF919F918F918C
:105560001F901FBE1F9018951F921FB61F921124E7
:105570008F939F93AF93BF9380912D04811113C09C
:1055800080912E0490912F04A0913004B0913104A9
:105590004196A11DB11D80932E0490932F04A093DA
:1055A0003004B0933104BF91AF919F918F911F90C0
:1055B0001FBE1F901895CDB7DEB7E4970FB6F894CD
:1055C000DEBF0FBECDBF84B7877F84BF0FB6F89410
:1055D000A8958091600088618093600010926000BF
:1055E0000FBE80E890E00FB6F8948093610090932E
:1055F00061000FBE85B7806885BF85B7806885BFAD
:1056000082EB98E090937B0180937A010E94180FBF
:105610000E946E0F0E94840C0E9450040E941B0581
:105620008091E20084608093E200789480915C0431
:105630008823A1F01091E9001F709091EC00892F50
:10564000817090FD80E8182B1092E9008091E800AD
:1056500083FD0E9454121F701093E90082E084BD04
:1056600093E095BD9AEF97BD80936E000E94750DF3
:10567000811102C00E94F50E06E511E08CE5E82ECE
:1056800081E0F82ED8018D918D018F3F11F00E949D
:10569000B408E016F106B1F70CE511E0BBE6EB2E1D
:1056A000B1E0FB2EF80181918F018F3F11F00E9434
:1056B000B408E016F106B1F78CE0EEE5F2E0DF01A8
:1056C000282F1D922A95E9F7EBE3F2E0DF011D9206
:1056D0008A95E9F790E080E00E94DC31893E9E4F98
:1056E00021F40E94750D811102C00E94911582E083
:1056F00090E00E94D4318093A7030E948E0D909376
:105700003304809332040E94C70FEFE3FCE9319722
:10571000F1F700C000000E94C70F80915E0280FF79
:1057200008C06FEF7FEF90E080E00E9400320E949F
:10573000560C83E090E00E94D4310E943B1280E03E
:1057400091E090932A0480932904E8E16E2E712C55
:10575000F0E45F2EAAE68A2EA2E09A2E8E010F5F59
:105760001F4F80915C0460E1E62E72E1F72E8530D8
:1057700009F451C10E94C70F882359F08FB7F894DC
:1057800040912E0450912F046091300470913104A7
:105790008FBF5EE5C52E52E0D52EE7E4F2E0D601DC
:1057A000F12CE12C7E2D8D919D9121913191281725
:1057B000390709F440C12827392760E0AA24A394B7
:1057C000B12CA9014A215B21452B09F42EC16BA7FD
:1057D0007CA79C012A213B2191E0232B09F490E036
:1057E0009DA70E94ED058160782F9FA78EA74BA5EE
:1057F0005CA56DA58FA50E94AE25F701EE0FFF1FDA
:10580000E95BFD4F80819181A826B926B182A082F3
:1058100080910C0190910D01B12C66E1A62E0196AC
:1058200009F051C180911901811157C18091C303C1
:1058300080FF1EC08091180182FF1AC00E94ED05F2
:105840002091FA023091FB02AC01421B530B2091D4
:105850001601309117014217530750F023E532E04B
:1058600041E0BC018091FC029091FD020E94F4187D
:1058700086E0E1E7F2E0D80101900D928A95E1F728
:10588000A0907302B0907402E0907502F0907602DE
:1058900010927302109274021092750210927602A6
:1058A0008A2D8B2991F080916F02909170020E9455
:1058B000DE05AC0190916B02992309F439C1809106
:1058C00014018417150608F441C18E2D8F2991F01B
:1058D00080916D0290916E020E94DE05AC01909164
:1058E0006A02992309F471C1809110018417150689
:1058F00008F479C18091730290917402892B909180
:105900007502892B90917602892B11F00E9408076D
:1059100086E0F801A1E7B2E001900D928A95E1F7E7
:105920000E94840690915B02891380935B028091B0
:105930005C04843009F015CF83E08093E900809106
:10594000E80082FF0ECF8091E80090E085FF0AC05A
:105950000E946F0450E2E52EF12C5801882309F4CF
:105960008BC191E08091E8008B778093E8009923C8
:1059700009F4F7CEE090D702F090D8028981E114C3
:10598000F10409F487C18E3F09F0CFC18A818330C9
:1059900020F08550833008F0C8C1EA81EE3008F06D
:1059A000C4C1F0E0EB58FD4C0C94913180915C0443
:1059B000843009F110922D040FB6F894A8956092E6
:1059C00060000FBE5092600083B7817F846083BF08
:1059D00083B7816083BF7894889583B78E7F83BFB8
:1059E0000FB6F894A895809160008861809360005C
:1059F000109260000FBE80915B04882361F00E94CA
:105A0000C70FEEE5F2E081919191892B09F00AC46C
:105A10008E169F06C1F780915C04853009F4C6CFCD
:105A20000E943F120E948406A5CE6F5FAA0CBB1C89
:105A30006F3009F0C6CE2FEFE21AF20A36E0E31615
:105A4000F10409F0AFCE8FEF88AB89AB1AAA0E94A0
:105A5000ED058160782F9CAB8BAB48A959A96AA949
:105A60008CA90E94AE25D4CEA89EF001A99EF00D6F
:105A70001124E153FC4FE288F388E114F10421F48E
:105A8000E090C003F090C103A89EF001A99EF00D24
:105A90001124E153FC4F86818823A1F085859685EA
:105AA0000E94DE05E816F90668F4BA9C700111241C
:105AB000C70181539C4F0E946C11C7018B529C4FB0
:105AC0000E942711B3948B2D90E020910C0130910E
:105AD0000D012817390744F6A5CE8091A4039091B3
